:100000000C9434000C9451000C9401010C94510098
:100010000C9451000C9451000C9451000C9428083D
:100020000C9451000C944F080C9451000C948A00CD
:100030000C9451000C9451000C9451000C945100FC
:100040000C946D000C9451000C9476080C945100A3
:100050000C948C090C9451000C9451000C94510098
:100060000C9451000C94510011241FBECFEFD8E026
:10007000DEBFCDBF11E0A0E0B1E0EAEEF6E102C0E4
:1000800005900D92AA3DB107D9F722E0AAEDB1E0A3
:1000900001C01D92A63FB207E1F70E945D050C94D6
:1000A000730B0C940000109280001092810010924B
:1000B00085001092840016BA83E080936F00539AF3
:1000C0003C9A3D9A089515BC14BC15BCEEE6F0E0D0
:1000D00080818160808315BA08951F920F920FB6B8
:1000E0000F9211248F938091F4018F5F8093F4011C
:1000F0008091F401811108C015BCE9981092F501B6
:100100001092F3011092F2018F910F900FBE0F9099
:100110001F9018951F920F920FB60F9211248F9374
:100120005B9A53981092810016BC1092F40185B529
:10013000816085BD1092F3011092F2018CB38CBBEB
:10014000E99A16BA449A8F910F900FBE0F901F90A4
:1001500018959C01220F331F820F931F880F991F40
:10016000880F991F880F991F8054924A96958795FA
:10017000969587951092F3011092F20110928500E6
:100180001092840090938900809388005B9A539A20
:100190005B9889E0809381000895E9E6F0E0808132
:1001A0008860808380818B7F8083EDE6F0E08081B2
:1001B00080830895809304010E9463000E94CD0013
:1001C000089560910202709103028091040290915F
:1001D000050208956091FE017091FF018091000277
:1001E0009091010208958091FA019091FB01089588
:1001F0006091F6017091F7018091F8019091F901F9
:1002000008951F920F920FB60F9211242F933F93D0
:100210008F939F9315BC86B590E09093F3018093E4
:10022000F2019091F4012091F2013091F301892FB4
:1002300090E0982F8827820F931F9093F30180936B
:10024000F201E9989F918F913F912F910F900FBEEE
:100250000F901F9018954F925F926F927F928F929E
:100260009F92AF92BF92CF92DF92EF92FF920F9345
:100270001F93CF93DF9300D000D0CDB7DEB780912E
:10028000F2019091F301892B09F498C2459A80916B
:10029000F5018F5F8093F5018091F501843009F4B9
:1002A00076C028F4813069F0823081F182C28A30D0
:1002B00009F417C18B3009F423C1873009F079C2E2
:1002C000A7C08091F2019091F3019C01369527958A
:1002D0003695279536952795409102015091030157
:1002E000CA01880F991F880F991F880F991F841BB7
:1002F000950B820F931F9695879596958795969562
:100300008795909303018093020153C22091F201DB
:100310003091F301A90160E070E0E0910201F091F9
:100320000301CF0196958795880F991F880F991F14
:10033000880F991FA0E0B0E084179507A607B707BC
:1003400038F49A01AB01281B390B4A0B5B0B03C035
:1003500020E030E0A901A0E2BEE40E94370B9F013B
:1003600040E050E00E94E70ADA01C901689412F8FF
:10037000B695A795979587951694D1F78093EE013A
:100380009093EF01A093F001B093F10112C220917C
:10039000F2013091F301A90160E070E0E091020107
:1003A000F0910301CF0196958795880F991F880FCB
:1003B000991F880F991FA0E0B0E084179507A60742
:1003C000B70738F49A01AB01281B390B4A0B5B0BBA
:1003D00003C020E030E0A901A0E5B3EC0E94370B98
:1003E0009F0140E050E00E94E70ADA01C9016894E9
:1003F00012F8B695A795979587951694D1F780939F
:10040000EA019093EB01A093EC01B093ED01D1C10F
:100410002091F2013091F301369527953695279575
:100420003695279580910001909101010A968217D7
:10043000930708F04DC02091F2013091F301A9011A
:1004400060E070E0E0910201F0910301CF01969528
:100450008795880F991F880F991F880F991FA0E013
:10046000B0E084179507A607B70738F49A01AB01E7
:10047000281B390B4A0B5B0B03C020E030E0A901BD
:10048000A1ECBFE40E94370B9F0140E050E00E94C6
:10049000E70AC0900401C694D12CE12CF12CCA01CA
:1004A000B901A70196010E94E70ADA01C90168941F
:1004B00012F8B695A795979587951694D1F78093DE
:1004C000E6019093E701A093E801B093E90171C1BF
:1004D0001092E6011092E7011092E8011092E901F2
:1004E00068C18091F2019091F301A0E0B0E08093A7
:1004F000E2019093E301A093E401B093E50159C1B7
:100500008090F2019090F301A12CB12C8092DE0139
:100510009092DF01A092E001B092E101C090E2016F
:10052000D090E301E090E401F090E5018C149D048B
:10053000AE04BF0408F054C0689412F8F694E7942F
:10054000D794C7941694D1F7609000017090010180
:10055000C301A0E0B0E08C159D05AE05BF0538F4E1
:10056000A7019601281B390B4A0B5B0B03C020E047
:1005700030E0A901A0E3B5E70E94370B209102010A
:100580003091030140E050E00E94E70A2093DA0135
:100590003093DB014093DC015093DD01689412F845
:1005A000B694A794979487941694D1F7C301880FB3
:1005B000991F880F991F880F991F86199709880E10
:1005C000991EA11CB11C689412F8B694A794979434
:1005D00087941694D1F79092010180920001A3C0F4
:1005E000689412F8B694A794979487941694D1F7C8
:1005F0000091000110910101C801A0E0B0E0881550
:100600009905AA05BB0538F4A5019401281B390BEF
:100610004A0B5B0B03C020E030E0A901A8EEB3E079
:100620000E94370B209102013091030140E050E01D
:100630000E94E70A29833A834B835C83CA01B9018C
:1006400024E630E040E050E00E94E70A21502632E4
:1006500008F040C0822F90E0FC01EE0FFF1FEE0F6C
:10066000FF1FEB5FFE4F80809180A280B380880FD8
:10067000991F880F991FFC01E75FFE4F4080518052
:1006800062807380481859086A087B0869817A81FA
:100690008B819C8124E630E040E050E00E94E70A34
:1006A000DB01A30192010E94420B24E630E040E00E
:1006B00050E00E94090BDA01C901880D991DAA1D9D
:1006C000BB1D8093DA019093DB01A093DC01B09312
:1006D000DD0108C01092DA011092DB011092DC01FA
:1006E0001092DD01C801880F991F880F991F880F8C
:1006F000991F801B910B689412F8F694E794D79495
:10070000C7941694D1F7C80ED91EE11CF11C689449
:1007100012F8F694E794D794C7941694D1F7D09230
:100720000101C09200018091EE019091EF01A09132
:10073000F001B091F1018093020290930302A09323
:100740000402B09305028091EA019091EB01A0911F
:10075000EC01B091ED018093FE019093FF01A09315
:100760000002B09301028091E6019091E701A0910F
:10077000E801B091E9018093FA019093FB01A09305
:10078000FC01B093FD016091DA017091DB01809171
:10079000DC019091DD0128EE33E040E050E00E9462
:1007A000090B2093F6013093F7014093F801509321
:1007B000F9011092F3011092F20145980F900F90F9
:1007C0000F900F90DF91CF911F910F91FF90EF90BD
:1007D000DF90CF90BF90AF909F908F907F906F9061
:1007E0005F904F9008958627A82FB0E0B595A79504
:1007F000B595A795B595A795B595A795A754BE4F5F
:100800008F70E82FF0E0E753FE4F9C91808189279D
:1008100008950F931F93CF93DF93662381F0EC012C
:100820006150062F10E00F5F1F4F080F191F80E067
:1008300069910E94F303C017D107D1F701C080E08E
:10084000DF91CF911F910F9108958BEB80930C0254
:1008500041E050E066E070E08CE092E00E945B0BCB
:1008600041E050E065E070E086E092E00E945B0BC2
:1008700041E050E064E070E087E092E00E945B0BB2
:1008800041E050E063E070E088E092E00E945B0BA2
:1008900041E050E062E070E089E092E00E945B0B92
:1008A00041E050E061E070E08AE092E00E945B0B82
:1008B00041E050E060E070E08BE092E00E945B0B72
:1008C0000895CF93DF9386E090E00E94530B8093CE
:1008D0000C028B3B09F585E090E00E94530BC6E0CB
:1008E000D2E0888384E090E00E94530B898383E008
:1008F00090E00E94530B8A8382E090E00E94530BA9
:100900008B8381E090E00E94530B8C8380E090E029
:100910000E94530B8D830EC0E6E0F2E084E08083FA
:100920008BE081838AE082838FE083838EE08483FF
:1009300084E68583DF91CF910895FC019381933202
:1009400011F128F4913249F0923291F048C0953279
:1009500081F120F19133C1F142C08091060290E013
:10096000A0E0B0E084839583A683B78381E00895F7
:100970008091070290E0A0E0B0E084839583A68395
:10098000B78381E008958091080290E0A0E0B0E094
:1009900084839583A683B78381E0089580910902BB
:1009A00090E0A0E0B0E084839583A683B78381E0E4
:1009B000089580910A0290E0A0E0B0E084839583DE
:1009C000A683B78381E0089580910B0290E0A0E0B8
:1009D000B0E084839583A683B78381E0089580E0A7
:1009E0000895FC0193819332B1F028F4913249F0DB
:1009F000923261F024C09532C1F090F09133D1F081
:100A00001EC084818093060281E0089584818093D2
:100A1000070281E0089584818093080281E00895AF
:100A200084818093090281E00895848180930A0281
:100A300081E00895848180930B0281E0089580E035
:100A40000895CF93DF93EC018A81843089F018F404
:100A5000813031F019C0853079F0863089F014C0CA
:100A60001A821B821C821D821E821F8281E00DC0A1
:100A7000CE010E949D0409C0CE010E94F10405C070
:100A80000E94250481E001C080E025E533E339833D
:100A90002883DF91CF910895809106020895809177
:100AA000070208958091080208958091090208952F
:100AB00080910A02089585E708950E9461040E94CA
:100AC0005805E82E0E945B05082F0E945205182F3A
:100AD0000E944F05D82F0E945505C82F0E944C0533
:100AE000212F4D2F6C2F0E94AD0589E00E948607B3
:100AF000C1EF0E94D2068DE092E00E94260A882370
:100B0000C1F368E08DE092E00E9409049091150223
:100B1000891309C08DE092E00E942105811105C072
:100B2000C0930F0202C0C0930F0268E08DE092E014
:100B30000E940904809315028DE092E00E94370A1A
:100B4000D8CF21E0209322026093230270932402E5
:100B500080932502909326020895EF920F9380933D
:100B600021026093200240931F0220931E020093F3
:100B70009D0181EA95E00E94E7070E9453008E2DB7
:100B80000E94DA000F91EF900895CF93DF9300D089
:100B90001F92CDB7DEB723E129839C01ABEABAEA05
:100BA0000E94280B96958795969587959B838A83B7
:100BB000BE016F5F7F4F80911F020E94CB090F9093
:100BC0000F900F90DF91CF910895CF93DF9300D0D6
:100BD0001F92CDB7DEB723E1298390649A838B837C
:100BE000BE016F5F7F4F809120020E94CB090F9062
:100BF0000F900F90DF91CF910895CF93DF9300D0A6
:100C00001F92CDB7DEB723E1298390649A838B834B
:100C1000BE016F5F7F4F80911E020E94CB090F9033
:100C20000F900F90DF91CF910895CF92DF92EF92C6
:100C3000FF920F931F93CF93DF9300D01F92CDB7F6
:100C4000DEB78B017A0123E029839C01A5E7B0E0A0
:100C50000E94280B24E630E040E050E00E94E70AC2
:100C6000211580E4380710F02FEF3FE3832F8F77B3
:100C700080648A832B83BE016F5F7F4F8091210246
:100C80000E94CB099701A9E6B0E00E94280B0F2E25
:100C9000F4E6CF2ED12CE12CF12CF02DA7019601FA
:100CA0000E94E70A3A832B8380912102BE016F5F85
:100CB0007F4F8F5F0E94CB09A0919D019801B0E00A
:100CC0000E94280BA70196010E94E70A3A832B8312
:100CD00080912102BE016F5F7F4F8E5F0E94CB0922
:100CE0000F900F900F90DF91CF911F910F91FF9078
:100CF000EF90DF90CF900895CF92DF92EF92FF9226
:100D00009B01AC018091230290912402A0912502C5
:100D1000B0912602C0901A02D0901B02E0901C02F3
:100D2000F0901D02BC01CD016C197D098E099F094F
:100D3000C0902302D0902402E0902502F090260279
:100D4000C0921A02D0921B02E0921C02F0921D0285
:100D50000E94D70A20E13EE040E050E00E94E70A0E
:100D60008091160290911702A0911802B091190279
:100D7000BC01CD01620F731F841F951F6093160283
:100D800070931702809318029093190228EE33E0B3
:100D900040E050E00E94E70AC901FF90EF90DF9029
:100DA000CF9008954F925F926F927F928F929F9211
:100DB000AF92BF92CF92DF92EF92FF920F931F9369
:100DC000CF93DF9300D000D0CDB7DEB71A8219825F
:100DD0001C821B8280912202882309F45FC010923A
:100DE000220282E00E94550A8C01019609F456C045
:100DF00080911E028823F1F0AE014D5F5F4FBE016E
:100E00006C5F7F4FCE0101960E94FC094B8128EE5A
:100E100033E0429FC001439F900D11242C8134E6A2
:100E2000239F800D911D112429813A81820F931FE8
:100E30000E94FD05C8010E94A9000E94F800CB0194
:100E40000E94E5050E94E1004B015C010E94EA005E
:100E50000E947C068C010E94EA002B013C010F2EAF
:100E6000FAE0CF2ED12CE12CF12CF02DC501B401EC
:100E7000A70196010E94E70A49015A01C301B20184
:100E8000A70196010E94E70ADA01C901A401B8018D
:100E90000E9415060E94F3000E94C5050E942B01C6
:100EA0000F900F900F900F90DF91CF911F910F91A6
:100EB000FF90EF90DF90CF90BF90AF909F908F907A
:100EC0007F906F905F904F9008956091AC028091F9
:100ED000B001681318C0615087EB92E00E940904CA
:100EE000E091B001F0E0EA54FD4F80812D9A4091ED
:100EF000B00150E067EB72E087ED92E00E944A0B90
:100F000081E08093F5021092AC0208958093B001C5
:100F10000895CF93DF931092C50084E08093C400BE
:100F2000A0ECB0E08C918D7F8C93E2ECF0E086E059
:100F30008083C1ECD0E088818B7F88838081806250
:100F400080838081886080838C91882344F4A6EC20
:100F5000B0E0E0ECF0E08C9180818823E4F3E1ECF8
:100F6000F0E08081806180838081806880838081DF
:100F700088608083808180648083DF91CF91089531
:100F800080E090E0FC01E457FD4F10820196803232
:100F90009105C1F71092B1001092B20082E087BBB8
:100FA00093E0909370008093B00008951092B10088
:100FB0001092AC0285E697E0909328028093270276
:100FC0001092B2008091A0018093B30008951F9306
:100FD000CF93DF93EC01F8940E9489070E94C00729
:100FE000259A389A3C9A409A2D9A8AEA8093C600AC
:100FF000E0ECF0E0808185FFFDCF4FEF53EC69E03E
:1010000070E0A6ECB0E0E0ECF0E01C919081992358
:10101000ECF3415051096109710919F01535A9F72F
:101020000CC0D0932A02C09329020E94D60715351E
:1010300011F0409A2D98789407C0D0932A02C0935B
:1010400029020E94D607F7CFDF91CF911F91089513
:101050001F920F920FB60F9211242F933F934F932D
:101060005F936F937F938F939F93AF93BF93EF9310
:10107000FF93E0912702F09128020995FF91EF91EB
:10108000BF91AF919F918F917F916F915F914F91A0
:101090003F912F910F900FBE0F901F9018951F92A8
:1010A0000F920FB60F9211248F939F938091D502C8
:1010B0009091D60201969093D6028093D5029F918B
:1010C0008F910F900FBE0F901F9018952DE339E070
:1010D00030932802209327029091A1019093B300AE
:1010E00093E09093B1008093B50208951F920F9200
:1010F0000FB60F9211240F931F932F933F934F938B
:101100005F936F937F938F939F93AF93BF93EF936F
:10111000FF931092B6021092B20083E08093B10068
:101120008091C600E091AC02F0E0E954FD4F80836D
:101130009091AC029F5F9093AC029091AC02993178
:1011400009F066C091E09093B6022D9A807390E00A
:101150009595879595958795959587959595879577
:101160004091B202282F082E000C330B241B3109AA
:1011700047FD339523703078332334F421503109FF
:101180002C6F3F6F2F5F3F4F422F121614F044E039
:10119000420F423054F02091B3023091B4022F5FDD
:1011A0003F4F3093B4022093B3020091AE021091EE
:1011B000AF022091B0023091B102042E000C550B09
:1011C000660B770B400F511F621F731F4093AE02D7
:1011D0005093AF026093B0027093B1028093B20259
:1011E0000E946608E0912902F0912A02309771F07E
:1011F000A0919F012091AE023091AF024091B002C8
:101200005091B102B0E00E94370B09951092AC02E8
:10121000FF91EF91BF91AF919F918F917F916F91CE
:101220005F914F913F912F911F910F910F900FBEA2
:101230000F901F901895282F30E0F901E457FD4FCB
:1012400090819230C9F4F901E457FD4F41E04083A9
:101250002D9A409880932B0280912B0290E0FC0104
:10126000EE0FFF1F8E0F9F1FFC01E45DFD4F80817D
:101270008093C6004093AD0208951092B200789416
:10128000E0919E01E23038F4F0E0EF55FE4F8081AE
:101290008093B3003AC0EA3098F4F0E0EF55FE4F87
:1012A00080818093B3009091B50220919E012250DD
:1012B000892F880F880F880F820F0E941B0925C075
:1012C000EB3038F4F0E0EF55FE4F80818093B300AF
:1012D0001CC0EE3038F4F0E0EF55FE4F8081809373
:1012E000B30013C0EF3048F4F0E0EF55FE4F8081BB
:1012F0008093B3001092B60208C01092B100109211
:101300009E01409A2D980E94D60780919E018F5F82
:1013100080939E0117BA08951F920F920FB60F92F5
:1013200011242F938F939F93EF93FF937894E091E1
:101330002B02F0E0E457FD4F8081882311F180916A
:10134000AD028330B8F480912B0290E02091AD0281
:10135000FC01EE0FFF1FE80FF91FE20FF11DE45D26
:10136000FD4F80818093C6008091AD028F5F809396
:10137000AD0207C0409AE0912B02F0E0E457FD4F28
:101380001082FF91EF919F918F912F910F900FBE3F
:101390000F901F901895CF92DF92EF92282F30E098
:1013A000F901E457FD4F9081913011F18770E82FDA
:1013B000F0E0EF54FE4F80818295880F807EF90126
:1013C000EE0FFF1FE20FF31FE45DFD4FDB01CD9039
:1013D000DD90EC90C082D182E28290819F719083F7
:1013E0009081892B8083F901E457FD4F82E080834F
:1013F000EF90DF90CF9008950F931F930091AE026E
:101400001091AF022091B0023091B1020C3311055E
:101410002105310520F41092B4021092B3022091FC
:10142000B3023091B402DC012D933C93E7EBF2E080
:10143000878985FB882780F9DB018C9387898295D2
:101440008170FA0180831F910F910895CF93C0910D
:10145000F502CC2349F04091B00150E067ED72E015
:101460000E944A0B1092F5028C2FCF910895CF93D2
:10147000DF932091B0012223A9F0A82FB92F20E0FB
:1014800030E0E0ECF0E0C6ECD0E0808185FFFDCFFD
:101490008D9188832F5F3F4F8091B00190E0281796
:1014A00039079CF3DF91CF910895CF92DF92EF92AD
:1014B000FF920F931F93CF93DF93CDB7DEB76E9755
:1014C0000FB6F894DEBF0FBECDBF98E1E7EBF2E0B8
:1014D000DE01119601900D929A95E1F79091B60276
:1014E000992309F453C0282F220F922F990F990F97
:1014F000920F890F482F477050E0982F9695969538
:1015000096959F5F282F30E0D9011B962A173B073D
:10151000C4F5C12CD12C60E070E001E010E0E12CBA
:10152000F12C21E030E02C0F3D1F290F311DF90176
:10153000208130E0042E02C0359527950A94E2F709
:1015400020FF09C09801062E02C0220F331F0A9403
:10155000E2F7C22AD32A4F5F5F4F6F5F7F4F483059
:10156000510519F49F5F4E2D5F2D6B30710511F4FD
:101570006E2D7F2D8F5F282F30E02A173B078CF2CE
:1015800002C0C12CD12C8C2D9D2D02C08FEF9FEF5E
:101590006E960FB6F894DEBF0FBECDBFDF91CF9130
:1015A0001F910F91FF90EF90DF90CF900895DB0196
:1015B0008F939F930E94370BBF91AF91A29F800D95
:1015C000911DA39F900DB29F900D11240895A1E24B
:1015D0001A2EAA1BBB1BFD010DC0AA1FBB1FEE1FAD
:1015E000FF1FA217B307E407F50720F0A21BB30BF8
:1015F000E40BF50B661F771F881F991F1A9469F774
:1016000060957095809590959B01AC01BD01CF01CF
:101610000895052E97FB1EF400940E94200B57FDA1
:1016200007D00E94E70A07FC03D04EF40C94200B6D
:1016300050954095309521953F4F4F4F5F4F0895FE
:1016400090958095709561957F4F8F4F9F4F08952E
:10165000A29FB001B39FC001A39F700D811D1124F3
:10166000911DB29F700D811D1124911D08950E943E
:10167000280BA59F900DB49F900DA49F800D911DE8
:1016800011240895B7FF0C94370B0E94370B821B6F
:10169000930B0895FB01DC0102C001900D924150B3
:1016A0005040D8F70895F999FECF92BD81BDF89AC0
:1016B000992780B50895DC01CB0103C02D910E94CC
:1016C000660B41505040D0F70895262FF999FECF70
:1016D0001FBA92BD81BD20BD0FB6F894FA9AF99A4F
:0A16E0000FBE01960895F894FFCFA5
:1016EA00F401E803013E5B0B009666020004DC018C
:1016FA000010930100F7610100013D01004E1F0136
:10170A000066060100DBF00000CADD00009BCC0089
:10171A0000E3BC000054AE0000B4A00000D6930061
:10172A000094870000D27B00007570000069650094
:10173A00009A5A0000F64F00006D450000EE3A008C
:10174A000069300000CC250000041B0000FC0F00DB
:10175A00009A040000BEF8FFFF40ECFFFFEADEFF3C
:10176A00FF70D0FFFF60C0FFFF02AEFFFF0C98FFC3
:10177A00FFBA7BFFFFEB50FFFFD5BFFEFF64010FEF
:10178A0031FAFAA5A5A5A5A5A5A5A5E2E2E2E2B4C6
:10179A00090004020601050307009D23BE46DB6516
:1017AA00F88C11AF32CA57E974005EBCE2613FDDC2
:0A17BA0083C29C7E20A3FD1F4100A6
:00000001FF
